:100000000C9456000C9473000C9473000C947300C1
:100010000C9473000C9473000C9473000C944902BC
:100020000C9473000C946E020C9473000C94730087
:100030000C9473000C9473000C9473000C94730074
:100040000C9473000C9473000C9473000C94730064
:100050000C9473000C9473000C9473000C94730054
:100060000C9473000C941C020C9473000C94730099
:100070000C9473000C9473000C9473000C94730034
:100080000C9473000C9473000C9473000C94730024
:100090000C9473000C9473000C9473000C94730014
:1000A0000C9473000C9473000C94730011241FBE05
:1000B000CFEFDAE0DEBFCDBF11E0A0E0B1E0EEE9C6
:1000C000F8E002C005900D92A631B107D9F711E012
:1000D000A6E1B1E001C01D92A332B107E1F70E9491
:1000E000E7020C944D040C9400008BB183608BB933
:1000F00088E08093B80084E08093BC00089584EA8F
:100100008093BC008091BC0087FFFCCF0895809352
:10011000BB0084E88093BC008091BC0087FFFCCFCB
:10012000089584E88093BC008091BC0087FFFCCFD9
:100130008091BB008093160184E88093BC0080917D
:10014000BC0087FFFCCF08958091B900887F089597
:1001500084E98093BC008091BC0084FDFCCF0895AD
:100160001092CD0087E68093CC00E9ECF0E080812E
:1001700088618083EAECF0E0808186608083089566
:10018000982F8091C80085FFFCCF9093CE000895F2
:10019000AC0120E007C08091C80085FFFCCFE09350
:1001A000CE002F5FFA01E20FF11DE081EE2399F7F7
:1001B0000895982F84EA8093BC008091BC0087FF4B
:1001C000FCCF86ED8093BB0084E88093BC008091D7
:1001D000BC0087FFFCCF9093BB0084E88093BC00F9
:1001E0008091BC0087FFFCCF6093BB0084E88093C4
:1001F000BC008091BC0087FFFCCF84E98093BC00E9
:100200008091BC0084FDFCCF0895982F8BB1836052
:100210008BB988E08093B80084E08093BC0084EAC6
:100220008093BC008091BC0087FFFCCF86ED80935B
:10023000BB0084E88093BC008091BC0087FFFCCFAA
:100240009093BB0084E88093BC008091BC0087FF42
:10025000FCCF84EA8093BC008091BC0087FFFCCF78
:1002600087ED8093BB0084E88093BC008091BC0044
:1002700087FFFCCF0E94910084E98093BC008091AD
:10028000BC0084FDFCCF08953F9A2FEB30E083E063
:10029000F9018083AFECB0E094EF9C93E0ECF0E0E8
:1002A000808182688083E1ECF0E080818F608083D0
:1002B000F90110829C93089583E08093BF0081ED43
:1002C0008093CF0008951092BF0084EF8093CF00F9
:1002D0000895AC0120E007C08091C80085FFFCCFE5
:1002E000E093CE002F5FFA01E20FF11DE081EE23D3
:1002F00099F7089587E690E09093CD008093CC0025
:1003000088ED8093C90086E08093CA000895982FF5
:100310008091C80085FFFCCF9093CE000895809116
:10032000C80087FFFCCF8091CE00089580911F0107
:100330009091200162E370E00E940804892B49F447
:100340008091210190912201019690932201809346
:100350002101089580911F019091200101969093B1
:10036000200180931F010E949601089591E09093CF
:100370006800EBE6F0E080E1808380E480838DBB61
:100380009BBB1EB813B8EAE6F0E0108280E28083DF
:100390001092200110921F0108958FEF9FEF90930C
:1003A000870080938600E0E8F0E0808182608083AF
:1003B000E1E8F0E080818961808384B1866684B958
:1003C0000895882311F0299A01C0299861157105B3
:1003D00051F0809180008068809380007093890044
:1003E000609388000895809180008F7780938000CB
:1003F0000895882311F02A9A01C02A986115710581
:1004000051F08091800080628093800070938B0017
:1004100060938A000895809180008F7D8093800092
:10042000089580E060E070E00E94E10180E060E01B
:1004300070E00E94F90108951F920F920FB60F927B
:1004400011248F938091CE0080931D011092C800DB
:100450008F910F900FBE0F901F901895882319F45D
:1004600060E070E014C0282F332727FD309537FF58
:1004700003C0309521953F4FB901882777FD8095BE
:10048000982F2FEF3FE340E050E00E94E903CB01BB
:1004900008951F920F920FB60F9211242F933F933E
:1004A0004F935F936F937F938F939F93AF93BF937C
:1004B000EF93FF938EB10E94AA01FF91EF91BF913C
:1004C000AF919F918F917F916F915F914F913F91EC
:1004D0002F910F900FBE0F901F9018951F920F92A3
:1004E0000FB60F9211248F9383B18F910F900FBE8F
:1004F0000F901F9018950F931F93DF93CF93CDB755
:10050000DEB728970FB6F894DEBF0FBECDBF8E01C1
:100510000F5F1F4FB8014AE050E00E941C04C80161
:100520000E94690128960FB6F894DEBF0FBECDBFBA
:10053000CF91DF911F910F9108950F931F9380E04A
:1005400091E00E94690189E20E94050180911601F3
:1005500090E00E947B020AE011E0C8010E9469015C
:100560008BE20E9405018091160190E00E947B02BF
:10057000C8010E9469018DE20E9405018091160167
:1005800090E00E947B028CE091E00E9469018EE085
:1005900091E00E9469011F910F91089580912101BE
:1005A000909122010E947B0282E191E00E94690108
:1005B0008091C80085FFFCCF8AE08093CE008091B7
:1005C000C80085FFFCCF8DE08093CE0008958F9208
:1005D0009F92AF92BF92CF92DF92EF92FF920F93D2
:1005E0001F93CF93DF938BB183608BB988E08093A7
:1005F000B80084E08093BC0080E26FE00E94D900E4
:1006000084E260E80E94D90087E690E09093CD00F4
:100610008093CC0088ED8093C90086E08093CA0067
:100620000E9444010E94CD010E94B6017894992451
:100630009A948824839444EFA42E33E0B32E21EDC2
:10064000C22E0E94CE020E949D0280911D0184361E
:1006500001F1853628F4803209F1813629F516C07A
:10066000833751F0873701F580911801843014F0F9
:1006700084E009C08F5F07C0809118018D3F14F49A
:100680008CEF01C081508093180105C090921E012B
:1006900002C080921E0110921D0106C010921D0121
:1006A00010921E0110921801D0901801DD2041F126
:1006B0002D2D332727FD309537FF03C03095219529
:1006C0003F4FB901882777FD8095982F2FEF3FE3A3
:1006D00040E050E00E94E9037B018C01EB01B09205
:1006E000BF00C092CF00DD1CDD24DD1C80911E0107
:1006F000882379F1813081F18F3F09F0A2CF35C095
:1007000080911E01882331F0813059F08F3F09F02C
:1007100098CF12C01092BF00A092CF000E94110289
:1007200090CFB092BF00C092CF0080E060E07DE744
:100730000E94F90181E00AC0B092BF00C092CF00D0
:1007400081E060E07DE70E94F90180E060E07DE704
:1007500014C08D2DB7010DC08D2DB7010E94F90178
:10076000D695C7958D2DBE0108C0D695C7958D2D00
:10077000BE010E94F9018D2DB7010E94E10161CFF8
:100780000F931F93DF93CF93CDB7DEB728970FB6A4
:10079000F894DEBF0FBECDBF8E010F5F1F4FB801B3
:1007A0004AE050E00E941C04C8010E94C80028963C
:1007B0000FB6F894DEBF0FBECDBFCF91DF911F9172
:1007C0000F9108953F9A0895479A0895479808957C
:1007D0000895629FD001739FF001829FE00DF11D8B
:1007E000649FE00DF11D929FF00D839FF00D749FAB
:1007F000F00D659FF00D9927729FB00DE11DF91F57
:10080000639FB00DE11DF91FBD01CF0111240895B3
:10081000AA1BBB1B51E107C0AA1FBB1FA617B70726
:1008200010F0A61BB70B881F991F5A95A9F7809542
:100830009095BC01CD010895FB019F01E8944230E1
:10084000C4F04532B4F44A3029F497FB1EF4909575
:1008500081959F4F642F77270E940804805D8A331B
:100860000CF0895D8193CB010097A1F716F45DE24E
:1008700051931082C9010C943D04DC01FC01672FE7
:1008800071917723E1F7329704C07C916D93708367
:0E0890006291AE17BF07C8F30895F894FFCF2A
:10089E004779726F203D207B2000090020007D0AE1
:0608AE000D0020436D0067
:00000001FF
