:100000000C9456000C9473000C9473000C947300C1
:100010000C9473000C9473000C9473000C94A30262
:100020000C9473000C94C8020C9473000C9473002D
:100030000C9473000C9473000C9473000C94730074
:100040000C9473000C9473000C9473000C94730064
:100050000C9473000C9473000C9473000C94730054
:100060000C9473000C9491020C9473000C94730024
:100070000C9473000C9473000C9473000C94730034
:100080000C9473000C9473000C9473000C94730024
:100090000C9473000C9473000C9473000C94730014
:1000A0000C9473000C9473000C94730011241FBE05
:1000B000CFEFDAE0DEBFCDBF11E0A0E0B1E0E2E1DA
:1000C000FAE002C005900D92AC33B107D9F711E008
:1000D000ACE3B1E001C01D92AE34B107E1F70E947C
:1000E00088030C9407050C9400008BB183608BB9D6
:1000F00088E08093B80084E08093BC00089584EA8F
:100100008093BC008091BC0087FFFCCF0895809352
:10011000BB0084E88093BC008091BC0087FFFCCFCB
:10012000089584E88093BC008091BC0087FFFCCFD9
:100130008091BB0080933C0110923D0184E8809344
:10014000BC008091BC0087FFFCCF08958091B9006E
:10015000887F089584E98093BC008091BC0084FD71
:10016000FCCF0895982F84EA8093BC008091BC0056
:1001700087FFFCCF4093BB0084E88093BC00809154
:10018000BC0087FFFCCF9093BB0084E88093BC0049
:100190008091BC0087FFFCCF6093BB0084E8809314
:1001A000BC008091BC0087FFFCCF84E98093BC0039
:1001B0008091BC0084FDFCCF0895982F8BB18360A3
:1001C0008BB988E08093B80084E08093BC0084EA17
:1001D0008093BC008091BC0087FFFCCF6093BB0084
:1001E00084E88093BC008091BC0087FFFCCF909393
:1001F000BB0084E88093BC008091BC0087FFFCCFEB
:1002000084EA8093BC008091BC0087FFFCCF4093C0
:10021000BB0084E88093BC008091BC0087FFFCCFCA
:100220000E94910084E98093BC008091BC0084FD11
:10023000FCCF08953F9A2FEB30E083E0F9018083F3
:10024000AFECB0E094EF9C93E0ECF0E0808182684A
:100250008083E1ECF0E080818F608083F90110827F
:100260009C93089583E08093BF0081ED8093CF003D
:1002700008951092BF0084EF8093CF000895AC01E1
:1002800020E007C08091C80085FFFCCFE093CE003E
:100290002F5FFA01E20FF11DE081EE2399F7089537
:1002A00087E690E09093CD008093CC0088ED80931A
:1002B000C90086E08093CA000895982F8091C800F5
:1002C00085FFFCCF9093CE0008958091C80087FFF2
:1002D000FCCF8091CE00089580914A0190914B010E
:1002E00062E370E00E94AF04892B49F480914C01D5
:1002F00090914D01019690934D0180934C0108958A
:1003000080914A0190914B01019690934B0180930B
:100310004A010E946C01089591E090936800EBE619
:10032000F0E080E1808380E480838DBB9BBB1EB8BE
:1003300013B8EAE6F0E0108280E2808310924B016D
:1003400010924A0108958FEF9FEF9093870080935A
:100350008600E0E8F0E0808182608083E1E8F0E000
:1003600080818961808384B1866684B908958823F9
:1003700011F0299A01C029986115710551F08091F9
:10038000800080688093800070938900609388006B
:100390000895809180008F7780938000089588234E
:1003A00011F02A9A01C02A986115710551F08091C7
:1003B000800080628093800070938B0060938A003D
:1003C0000895809180008F7D80938000089580E063
:1003D00060E070E00E94B70180E060E070E00E94A1
:1003E000CF0108952091420180914101482F50E0B2
:1003F00080E090E02F3B10F081E090E08423952393
:10040000892B49F080913F01909140010196909392
:10041000400180933F0180E090E02353233110F4AA
:1004200081E090E084239523892B49F080913F015E
:100430009091400101979093400180933F018091FA
:100440003F01909140018D34910544F06CE470E0DF
:100450000E94C3049093400180933F0180913F012B
:100460009091400197FF06C0845B9F4F909340019D
:1004700080933F0180913F01909140010A97C99775
:1004800020F080E091E00E943F0180913F01909137
:1004900040010A97439720F486E091E00E943F01D3
:1004A00080913F01909140014D97439720F48BE05C
:1004B00091E00E943F0180913F0190914001C097DF
:1004C000439720F480E191E00E943F0185E191E0B3
:1004D0000E943F01089580914901882321F081E025
:1004E000809341010895109241010895882319F4E1
:1004F00060E070E014C0282F332727FD309537FFC8
:1005000003C0309521953F4FB901882777FD80952D
:10051000982F2FEF3FE340E050E00E949004CB0182
:1005200008951F920F920FB60F9211248F9380910E
:10053000CE00809348011092C8008F910F900FBE9B
:100540000F901F9018951F920F920FB60F921124C3
:100550002F933F934F935F936F937F938F939F93CB
:10056000AF93BF93EF93FF938EB10E948001FF91F1
:10057000EF91BF91AF919F918F917F916F915F911B
:100580004F913F912F910F900FBE0F901F90189594
:100590001F920F920FB60F9211248F9383B18F91F8
:1005A0000F900FBE0F901F9018950F931F93DF931E
:1005B000CF93CDB7DEB728970FB6F894DEBF0FBE46
:1005C000CDBF8E010F5F1F4FB8014AE050E00E947F
:1005D000D604C8010E943F0128960FB6F894DEBFEA
:1005E0000FBECDBFCF91DF911F910F9108950F9353
:1005F0001F9388E191E00E943F0189E06AE34BE3A9
:100600000E94DD0080913C0190913D010E94D50245
:1006100005E211E0C8010E943F018BE06AE34BE371
:100620000E94DD0080913C0190913D010E94D50225
:10063000C8010E943F018DE06AE34BE30E94DD00A8
:1006400080913C0190913D010E94D50287E291E0AA
:100650000E943F0189E291E00E943F011F910F91AA
:1006600008950F931F938DE291E00E943F0189E26C
:1006700066ED47ED0E94DD0080913C0190913D01C7
:100680000E94D50205E211E0C8010E943F018BE201
:1006900066ED47ED0E94DD0080913C0190913D01A7
:1006A0000E94D502C8010E943F018DE266ED47ED30
:1006B0000E94DD0080913C0190913D010E94D50295
:1006C00080913C018093420187E291E00E943F01CA
:1006D00089E291E00E943F011F910F91089580915E
:1006E0004C0190914D010E94D50287E391E00E9458
:1006F0003F018091C80085FFFCCF8AE08093CE0047
:100700008091C80085FFFCCF8DE08093CE000895D6
:100710008F929F92AF92BF92CF92DF92EF92FF9211
:100720000F931F93CF93DF938BB183608BB988E0D6
:100730008093B80084E08093BC0080E26FE046EDD7
:100740000E94B20084E260E846ED0E94B20080E2BE
:100750006FE04AE30E94B2008FE160E84AE30E9442
:10076000B20084E264E64AE30E94B20085E260E2FD
:100770004AE30E94B20086E260E04AE30E94B200CF
:1007800087E690E09093CD008093CC0088ED809335
:10079000C90086E08093CA000E941A010E94A3014A
:1007A0000E948C017894AA24A39488248A9444EF0C
:1007B000942E33E0B32E21EDC22E0E94F7020E9448
:1007C0006F030E94310380914901882319F0A092A0
:1007D000410102C0109241010E94F2018091480142
:1007E000843601F1853628F4803209F1813629F505
:1007F00016C0833751F0873701F58091430184306B
:1008000014F084E009C08F5F07C0809143018D3FE1
:1008100014F48CEF01C081508093430105C0809295
:10082000490102C0A09249011092480106C01092ED
:1008300048011092490110924301D0904301DD20FC
:1008400041F12D2D332727FD309537FF03C030951B
:1008500021953F4FB901882777FD8095982F2FEF7D
:100860003FE340E050E00E9490047B018C01EB01EB
:10087000B092BF00C092CF00DD1CDD24DD1C809152
:100880004901882379F1813081F18F3F09F095CFBB
:1008900035C080914901882331F0813059F08F3F74
:1008A00009F08BCF12C01092BF009092CF000E942F
:1008B000E70183CFB092BF00C092CF0080E060E03C
:1008C0007DE70E94CF0181E00AC0B092BF00C092D4
:1008D000CF0081E060E07DE70E94CF0180E060E032
:1008E0007DE714C08D2DB7010DC08D2DB7010E947D
:1008F000CF01D695C7958D2DBE0108C0D695C79559
:100900008D2DBE010E94CF018D2DB7010E94B70130
:1009100054CF3F9A0895479A0895479808950895A7
:10092000629FD001739FF001829FE00DF11D649FD3
:10093000E00DF11D929FF00D839FF00D749FF00D5F
:10094000659FF00D9927729FB00DE11DF91F639F00
:10095000B00DE11DF91FBD01CF0111240895AA1B9F
:10096000BB1B51E107C0AA1FBB1FA617B70710F09A
:10097000A61BB70B881F991F5A95A9F780959095CC
:10098000BC01CD01089597FB092E07260AD077FDFB
:1009900004D0E5DF06D000201AF4709561957F4FF2
:1009A0000895F6F7909581959F4F0895FB019F015B
:1009B000E8944230C4F04532B4F44A3029F497FB4D
:1009C0001EF4909581959F4F642F77270E94AF0466
:1009D000805D8A330CF0895D8193CB010097A1F78C
:1009E00016F45DE251931082C9010C94F704DC0106
:1009F000FC01672F71917723E1F7329704C07C9156
:100A00006D9370836291AE17BF07C8F30895F89491
:020A1000FFCF16
:100A12006E6F6F7264006F6F7374007A7569640031
:100A220077657374000A0D00636F6D7061737320D4
:100A32003D207B2000090020007D0A0D00477972CD
:0C0A42006F203D207B200020436D000051
:00000001FF
