:100000000C9456000C9473000C9473000C947300C1
:100010000C9473000C9473000C9473000C947F0286
:100020000C9473000C94A4020C9473000C94730051
:100030000C9473000C9473000C9473000C94730074
:100040000C9473000C9473000C9473000C94730064
:100050000C9473000C9473000C9473000C94730054
:100060000C9473000C9452020C9473000C94730063
:100070000C9473000C9473000C9473000C94730034
:100080000C9473000C9473000C9473000C94730024
:100090000C9473000C9473000C9473000C94730014
:1000A0000C9473000C9473000C94730011241FBE05
:1000B000CFEFDAE0DEBFCDBF11E0A0E0B1E0E2E6D5
:1000C000FAE002C005900D92A833B107D9F711E00C
:1000D000A8E3B1E001C01D92A934B107E1F70E9485
:1000E00072030C942F050C9400008BB183608BB9C4
:1000F00088E08093B80084E08093BC00089584EA8F
:100100008093BC008091BC0087FFFCCF0895809352
:10011000BB0084E88093BC008091BC0087FFFCCFCB
:10012000089584E88093BC008091BC0087FFFCCFD9
:100130008091BB00809338011092390184E880934C
:10014000BC008091BC0087FFFCCF08958091B9006E
:10015000887F089584E98093BC008091BC0084FD71
:10016000FCCF08951092CD0087E68093CC00E9EC97
:10017000F0E0808188618083EAECF0E08081866035
:1001800080830895982F8091C80085FFFCCF9093BD
:10019000CE000895AC0120E007C08091C80085FF23
:1001A000FCCFE093CE002F5FFA01E20FF11DE0815A
:1001B000EE2399F70895982F84EA8093BC008091EC
:1001C000BC0087FFFCCF4093BB0084E88093BC0059
:1001D0008091BC0087FFFCCF9093BB0084E88093A4
:1001E000BC008091BC0087FFFCCF6093BB0084E81B
:1001F0008093BC008091BC0087FFFCCF84E9809392
:10020000BC008091BC0084FDFCCF0895982F8BB179
:1002100083608BB988E08093B80084E08093BC0051
:1002200084EA8093BC008091BC0087FFFCCF609380
:10023000BB0084E88093BC008091BC0087FFFCCFAA
:100240009093BB0084E88093BC008091BC0087FF42
:10025000FCCF84EA8093BC008091BC0087FFFCCF78
:100260004093BB0084E88093BC008091BC0087FF72
:10027000FCCF0E94910084E98093BC008091BC0077
:1002800084FDFCCF08953F9A2FEB30E083E0F90125
:100290008083AFECB0E094EF9C93E0ECF0E08081E1
:1002A00082688083E1ECF0E080818F608083F901D7
:1002B00010829C93089583E08093BF0081ED80932A
:1002C000CF0008951092BF0084EF8093CF0008956F
:1002D000AC0120E007C08091C80085FFFCCFE0930F
:1002E000CE002F5FFA01E20FF11DE081EE2399F7B6
:1002F000089587E690E09093CD008093CC0088ED40
:100300008093C90086E08093CA000895982F809159
:10031000C80085FFFCCF9093CE0008958091C8005F
:1003200087FFFCCF8091CE00089580914501909188
:10033000460162E370E00E94DE04892B49F480915B
:10034000470190914801019690934801809347019D
:100350000895809145019091460101969093460140
:10036000809345010E949501089591E09093680063
:10037000EBE6F0E080E1808380E480838DBB9BBB73
:100380001EB813B8EAE6F0E0108280E28083109293
:1003900046011092450108958FEF9FEF90938700DB
:1003A00080938600E0E8F0E0808182608083E1E86D
:1003B000F0E080818961808384B1866684B9089584
:1003C000882311F0299A01C029986115710551F00F
:1003D0008091800080688093800070938900609392
:1003E00088000895809180008F7780938000089521
:1003F000882311F02A9A01C02A986115710551F0DD
:100400008091800080628093800070938B00609365
:100410008A000895809180008F7D809380000895E8
:1004200080E060E070E00E94E00180E060E070E069
:100430000E94F8010895882319F480E091E009C032
:10044000813019F486E091E004C0823029F48BE019
:1004500091E00E9468010895833021F480E191E0E9
:100460000E94680108958091420184323CF080919D
:1004700044018F5F809344011092420180914301B7
:1004800084323CF080914401815080934401109269
:1004900043018091440164E00E94D104892F0E94AD
:1004A0001B0208951F920F920FB60F9211248F9383
:1004B0008091CE00809340011092C8008F910F90E0
:1004C0000FBE0F901F901895882319F460E070E01C
:1004D00014C0282F332727FD309537FF03C03095F0
:1004E00021953F4FB901882777FD8095982F2FEFF1
:1004F0003FE340E050E00E94B204CB0108951F9218
:100500000F920FB60F9211242F933F934F935F9347
:100510006F937F938F939F93AF93BF93EF93FF93CB
:100520008EB10E94A901FF91EF91BF91AF919F9170
:100530008F917F916F915F914F913F912F910F908C
:100540000FBE0F901F9018951F920F920FB60F922B
:1005500011248F9383B18F910F900FBE0F901F9036
:1005600018950F931F93DF93CF93CDB7DEB76097A6
:100570000FB6F894DEBF0FBECDBF8E010F5F1F4FC9
:10058000B8014AE050E00E94FE04C8010E946801E0
:1005900060960FB6F894DEBF0FBECDBFCF91DF914E
:1005A0001F910F9108950F931F9385E191E00E9491
:1005B000680189E06AE34BE30E94060180913801FB
:1005C000909139010E94B10202E211E0C8010E943B
:1005D00068018BE06AE34BE30E94060180913801D9
:1005E000909139010E94B102C8010E9468018DE01A
:1005F0006AE34BE30E940601809138019091390132
:100600000E94B10284E291E00E94680186E291E0DA
:100610000E9468011F910F9108958AE291E00E9463
:10062000680189E266ED47ED0E940601809138017C
:10063000909139010E94B10282E291E00E9468012A
:100640008BE266ED47ED0E940601809138019091A2
:1006500039010E94B10282E291E00E9468018BE2BE
:1006600066ED47ED0E9406018091380190913901B5
:100670000E94B102209138013091390125363105AF
:1006800028F0809142018F5F8093420125513040D4
:100690002930310528F4809143018F5F8093430115
:1006A00084E291E00E94680186E291E00E94680184
:1006B000089580914701909148010E94B10284E31E
:1006C00091E00E9468018091C80085FFFCCF8AE01C
:1006D0008093CE008091C80085FFFCCF8DE0809391
:1006E000CE0008958F929F92AF92BF92CF92DF92E9
:1006F000EF92FF920F931F93CF93DF938BB18360A1
:100700008BB988E08093B80084E08093BC0080E2DD
:100710006FE046ED0E94DB0084E260E846ED0E9457
:10072000DB0080E26FE04AE30E94DB008FE160E8DB
:100730004AE30E94DB0082E162E04AE30E94DB00C0
:1007400082E160E24AE30E94DB0082E160E44AE386
:100750000E94DB0082E160E84AE30E94DB0082E164
:1007600060E04AE30E94DB008EE260E44AE30E941C
:10077000DB008EE260E04AE30E94DB008EE260E094
:100780004AE30E94DB0083E260E24AE30E94DB006E
:1007900087E690E09093CD008093CC0088ED809325
:1007A000C90086E08093CA000E9443010E94CC01E8
:1007B0000E94B501789488248A94AA24A39444EFD3
:1007C000942E33E0B32E21EDC22E0E9459030E94D5
:1007D00033028FE06AE34BE30E94060180914001FF
:1007E000843601F1853628F4803209F1813629F505
:1007F00016C0833751F0873701F580913B01843073
:1008000014F084E009C08F5F07C080913B018D3FE9
:1008100014F48CEF01C0815080933B0105C080929D
:10082000410102C0A09241011092400106C0109205
:1008300040011092410110923B01D0903B01DD201C
:1008400041F12D2D332727FD309537FF03C030951B
:1008500021953F4FB901882777FD8095982F2FEF7D
:100860003FE340E050E00E94B2047B018C01EB01C9
:10087000B092BF00C092CF00DD1CDD24DD1C809152
:100880004101882379F1813081F18F3F09F09DCFBB
:1008900035C080914101882331F0813059F08F3F7C
:1008A00009F093CF12C01092BF009092CF000E9427
:1008B00010028BCFB092BF00C092CF0080E060E00A
:1008C0007DE70E94F80181E00AC0B092BF00C092AB
:1008D000CF0081E060E07DE70E94F80180E060E009
:1008E0007DE714C08D2DB7010DC08D2DB7010E947D
:1008F000F801D695C7958D2DBE0108C0D695C79530
:100900008D2DBE010E94F8018D2DB7010E94E001DE
:100910005CCF0F931F93DF93CF93CDB7DEB72897AC
:100920000FB6F894DEBF0FBECDBF8E010F5F1F4F15
:10093000B8014AE050E00E94FE04C8010E94CA00CB
:1009400028960FB6F894DEBF0FBECDBFCF91DF91D2
:100950001F910F9108953F9A0895479A08954798D7
:1009600008950895629FD001739FF001829FE00D6A
:10097000F11D649FE00DF11D929FF00D839FF00D1E
:10098000749FF00D659FF00D9927729FB00DE11DCA
:10099000F91F639FB00DE11DF91FBD01CF011124A7
:1009A000089587FB082E062687FD819567FD6195D2
:1009B00019D00EF4919507FC81950895AA1BBB1BD5
:1009C00051E107C0AA1FBB1FA617B70710F0A61B4F
:1009D000B70B881F991F5A95A9F780959095BC0170
:1009E000CD010895991B79E004C0991F961708F06E
:1009F000961B881F7A95C9F780950895FB019F0182
:100A0000E8944230C4F04532B4F44A3029F497FBFC
:100A10001EF4909581959F4F642F77270E94DE04E6
:100A2000805D8A330CF0895D8193CB010097A1F73B
:100A300016F45DE251931082C9010C941F05DC018C
:100A4000FC01672F71917723E1F7329704C07C9105
:100A50006D9370836291AE17BF07C8F30895F89441
:020A6000FFCFC6
:100A62006E6F6F7264006F6F7374007A75696400E1
:100A72007765737400636F6D70617373203D207BC3
:100A82002000090020007D0A0D004779726F203D89
:080A9200207B200020436D00D1
:00000001FF
