:100000000C9456000C9473000C9473000C947300C1
:100010000C9473000C9473000C9473000C94730094
:100020000C9473000C942D010C9473000C947300C9
:100030000C9473000C9473000C9473000C94730074
:100040000C9473000C9473000C9473000C94730064
:100050000C9473000C9473000C9473000C94730054
:100060000C9473000C9473000C9473000C94730044
:100070000C9473000C9473000C9473000C94730034
:100080000C9473000C9473000C9473000C94730024
:100090000C9473000C9473000C9473000C94730014
:1000A0000C9473000C9473000C94730011241FBE05
:1000B000CFEFDAE0DEBFCDBF11E0A0E0B1E0E0E3DA
:1000C000F4E002C005900D92A630B107D9F711E017
:1000D000A6E0B1E001C01D92A830B107E1F70E948F
:1000E00067010C9416020C940000AC0120E007C0DC
:1000F0008091C80085FFFCCFE093CE002F5FFA010E
:10010000E20FF11DE081EE2399F7089591E09093BD
:10011000680080E180936B009BBB13B810920701CD
:1001200010920601089580910601909107010196B1
:10013000909307018093060108953F9A2FEB30E0DA
:1001400083E0F9018083AFECB0E094EF9C93E0ECA6
:10015000F0E0808182688083E1ECF0E080818F6054
:100160008083F90110829C93089583E08093BF00FF
:1001700081ED8093CF0008951092BF0084EF8093AB
:10018000CF0008958FEF9FEF9093870080938600B4
:10019000E0E8F0E0808182608083E1E8F0E0808147
:1001A0008961808384B1866684B90895882311F0BB
:1001B000299A01C029986115710551F0809180003C
:1001C0008068809380007093890060938800089510
:1001D000809180008F77809380000895882311F0AC
:1001E0002A9A01C02A986115710551F0809180000A
:1001F00080628093800070938B0060938A000895E2
:10020000809180008F7D80938000089580E060E081
:1002100070E00E94D60080E060E070E00E94EE0096
:10022000089587E690E09093CD008093CC0088E11C
:100230008093C90086E08093CA000895982F80912A
:10024000C80085FFFCCF9093CE0008958091C80030
:1002500087FFFCCF8091CE0008951F920F920FB6BA
:100260000F9211248F939F9383B1809106019091F7
:100270000701019690930701809306019F918F914A
:100280000F900FBE0F901F9018950F931F93DF9341
:10029000CF93CDB7DEB728970FB6F894DEBF0FBE69
:1002A000CDBF8E010F5F1F4FB8014AE050E00E94A2
:1002B000E501C8010E94750028960FB6F894DEBFCC
:1002C0000FBECDBFCF91DF911F910F9108950F9376
:1002D0001F930E949D000E94C20087E690E09093C9
:1002E000CD008093CC0088E18093C90086E08093A4
:1002F000CA0091E09093680080E180936B009BBB03
:1003000013B8109207011092060180E395E720E9E7
:1003100031E0F9013197F1F70197D9F778940AE0C4
:100320001DE02FC080E060E070E20E94D60080E017
:1003300060E070E20E94EE0080910601909107015A
:1003400064EF71E00E94D101892BD9F480910601FC
:100350009091070164E670E00E94D101CB010E94F8
:10036000450180E091E00E9475008091C80085FF02
:10037000FCCF0093CE008091C80085FFFCCF109386
:10038000CE0080910401882369F680E090E01F91FF
:100390000F9108953F9A0895479A089547980895B0
:1003A0000895AA1BBB1B51E107C0AA1FBB1FA617BC
:1003B000B70710F0A61BB70B881F991F5A95A9F70E
:1003C00080959095BC01CD010895FB019F01E894B3
:1003D0004230C4F04532B4F44A3029F497FB1EF49D
:1003E000909581959F4F642F77270E94D101805D62
:1003F0008A330CF0895D8193CB010097A1F716F445
:100400005DE251931082C9010C940602DC01FC01EB
:10041000672F71917723E1F7329704C07C916D9338
:1004200070836291AE17BF07C8F30895F894FFCFA9
:0604300020436D000100F5
:00000001FF
