:100000000C9456000C9460000C9460000C946000FA
:100010000C9460000C9460000C9460000C946000E0
:100020000C9460000C9460000C9460000C946000D0
:100030000C9460000C9460000C9460000C946000C0
:100040000C9460000C9460000C9460000C946000B0
:100050000C9460000C9460000C9460000C946000A0
:100060000C9460000C9460000C9460000C94600090
:100070000C9460000C9460000C9460000C94600080
:100080000C9460000C9460000C9460000C94600070
:100090000C9460000C9460000C9460000C94600060
:1000A0000C9460000C9460000C94600011241FBE3E
:1000B000CFEFDAE0DEBFCDBF0E94E7000C946E0107
:1000C0000C94000087E690E09093CD008093CC00E4
:1000D00088E18093C90086E08093CA000895982F34
:1000E0008091C80085FFFCCF9093CE000895809149
:1000F000C80087FFFCCF8091CE0008953F9A2FEB78
:1001000030E083E0F9018083AFECB0E094EF9C93A2
:10011000E0ECF0E0808182688083E1ECF0E08081B7
:100120008F608083F90110829C93089583E080930F
:10013000BF0081ED8093CF0008951092BF0084EF3F
:100140008093CF0008958FEF9FEF90938700809367
:100150008600E0E8F0E0808182608083E1E8F0E002
:1001600080818961808384B1866684B908958823FB
:1001700011F0299A01C029986115710551F08091FB
:10018000800080688093800070938900609388006D
:100190000895809180008F77809380000895882350
:1001A00011F02A9A01C02A986115710551F08091C9
:1001B000800080628093800070938B0060938A003F
:1001C0000895809180008F7D809380000895FF9234
:1001D0000F931F9387E690E09093CD008093CC001F
:1001E00088E18093C90086E08093CA000E947E0067
:1001F00080E395E720E931E0F9013197F1F70197C4
:10020000D9F783E08093BF0081ED8093CF000E94F7
:10021000A30083E0F82E01ED14EFF092BF000093ED
:10022000CF008091C80087FFFCCF9091CE008091D5
:10023000C80085FFFCCF9093CE00943691F195369F
:1002400028F49032B1F0913641F720C09337A9F0ED
:10025000973719F780E06FEF7FEF0E94CF0080E0C3
:100260006FEF7FEF0E94B7001092BF001093CF0096
:10027000D4CF80E060E070E00CC081E06FEF7FE7FA
:100280000E94CF0081E06FEF7FE713C080E06FEF47
:100290007FE70E94B70080E060E070E00E94CF003E
:1002A000BCCF80E06FEF7FE70E94CF0080E060E08E
:1002B00070E00E94B700B1CF80E060E070E00E9483
:1002C000B70080E060E070E00E94CF0008953F9AA0
:1002D0000895479A0895479808950895F894FFCF90
:00000001FF
