:100000000C9456000C9460000C9460000C946000FA
:100010000C9460000C9460000C9460000C946000E0
:100020000C9460000C9460000C9460000C946000D0
:100030000C9460000C9460000C9460000C946000C0
:100040000C9460000C9460000C9460000C946000B0
:100050000C9460000C9460000C9460000C946000A0
:100060000C9460000C9460000C9460000C94600090
:100070000C9460000C9460000C9460000C94600080
:100080000C9460000C9460000C9460000C94600070
:100090000C9460000C9460000C9460000C94600060
:1000A0000C9460000C9460000C94600011241FBE3E
:1000B000CFEFDAE0DEBFCDBF0E94E7000C947B01FA
:1000C0000C94000087E690E09093CD008093CC00E4
:1000D00088E18093C90086E08093CA000895982F34
:1000E0008091C80085FFFCCF9093CE000895809149
:1000F000C80087FFFCCF8091CE0008953F9A2FEB78
:1001000030E083E0F9018083AFECB0E094EF9C93A2
:10011000E0ECF0E0808182688083E1ECF0E08081B7
:100120008F608083F90110829C93089583E080930F
:10013000BF0081ED8093CF0008951092BF0084EF3F
:100140008093CF0008958FEF9FEF90938700809367
:100150008600E0E8F0E0808182608083E1E8F0E002
:1001600080818961808384B1866684B908958823FB
:1001700011F0299A01C029986115710551F08091FB
:10018000800080688093800070938900609388006D
:100190000895809180008F77809380000895882350
:1001A00011F02A9A01C02A986115710551F08091C9
:1001B000800080628093800070938B0060938A003F
:1001C0000895809180008F7D809380000895FF9234
:1001D0000F931F93CF93DF9387E690E09093CD002A
:1001E0008093CC0088E18093C90086E08093CA00A8
:1001F0000E947E0080E395E720E931E0F901319724
:10020000F1F70197D9F783E08093BF0081ED8093E8
:10021000CF000E94A300C0E0D0E083E0F82E01ED03
:1002200014EFF092BF000093CF008091C80087FFC9
:10023000FCCF9091CE008091C80085FFFCCF9093B9
:10024000CE009436D9F1953628F49032C1F091362B
:1002500041F729C09337D1F0973719F780E06FEF56
:100260007FEF0E94CF0080E06FEF7FEF0E94B7002A
:100270001092BF001093CF00C0E0D0E0D2CF80E05A
:1002800060E070E00E94B70080E013C081E06FEF93
:100290007FE70E94CF0081E06FEF7FE70E94B70009
:1002A000C1E0D0E0BECF8C2F6FEF7FE70E94B70098
:1002B0008C2F60E070E00E94CF00B3CF8C2F6FEFE7
:1002C0007FE70E94CF008C2F60E070E00E94B700B3
:1002D000A8CF80E060E070E00E94B70080E060E0BE
:1002E00070E00E94CF0008953F9A0895479A0895BC
:0A02F000479808950895F894FFCF91
:00000001FF
