:100000000C9456000C9473000C9473000C947300C1
:100010000C9473000C9473000C9473000C94BC014A
:100020000C9473000C945C010C9473000C9473009A
:100030000C9473000C9473000C9473000C94730074
:100040000C9473000C9473000C9473000C94730064
:100050000C9473000C9473000C9473000C94730054
:100060000C9473000C9473000C9473000C94730044
:100070000C9473000C9473000C9473000C94730034
:100080000C9473000C9473000C9473000C94730024
:100090000C9473000C9473000C9473000C94730014
:1000A0000C9473000C9473000C94730011241FBE05
:1000B000CFEFDAE0DEBFCDBF11E0A0E0B1E0EAE4CF
:1000C000F6E002C005900D92A830B107D9F711E013
:1000D000A8E0B1E001C01D92A131B107E1F70E9493
:1000E000E1010C9423030C940000AC0120E007C054
:1000F0008091C80085FFFCCFE093CE002F5FFA010E
:10010000E20FF11DE081EE2399F708953F9A2FEB5E
:1001100030E083E0F9018083AFECB0E094EF9C9392
:10012000E0ECF0E0808182688083E1ECF0E08081A7
:100130008F608083F90110829C93089591E09093E1
:100140006800EBE6F0E080E1808380E480838DBB93
:100150009BBB1EB813B8EAE6F0E0108280E2808311
:1001600010920E0110920D01089583E08093BF005C
:1001700081ED8093CF0008951092BF0084EF8093AB
:10018000CF0008958FEF9FEF9093870080938600B4
:10019000E0E8F0E0808182608083E1E8F0E0808147
:1001A0008961808384B1866684B90895882311F0BB
:1001B000299A01C029986115710551F0809180003C
:1001C0008068809380007093890060938800089510
:1001D000809180008F77809380000895882311F0AC
:1001E0002A9A01C02A986115710551F0809180000A
:1001F00080628093800070938B0060938A000895E2
:10020000809180008F7D80938000089580E060E081
:1002100070E00E94D60080E060E070E00E94EE0096
:10022000089580910D0190910E0164E670E00E94A6
:10023000DE02892B49F480910F0190911001019603
:100240009093100180930F01089587E690E09093BA
:10025000CD008093CC0088E18093C90086E0809334
:10026000CA000895982F8091C80085FFFCCF909315
:10027000CE0008958091C80087FFFCCF8091CE000A
:100280000895882319F460E070E014C0282F332704
:1002900027FD309537FF03C0309521953F4FB901B9
:1002A000882777FD8095982F2FEF3FE340E050E0BF
:1002B0000E94BF02CB0108951F920F920FB60F92BA
:1002C00011248F9383B18F910F900FBE0F901F90C9
:1002D00018950F931F93DF93CF93CDB7DEB7289771
:1002E0000FB6F894DEBF0FBECDBF8E010F5F1F4F5C
:1002F000B8014AE050E00E94F202C8010E94750075
:1003000028960FB6F894DEBF0FBECDBFCF91DF9118
:100310001F910F91089580910D0190910E0164E657
:1003200070E00E94DE02892BC1F480910F01909150
:1003300010010E94690180E091E00E9475008091A7
:10034000C80085FFFCCF8AE08093CE008091C80072
:1003500085FFFCCF8DE08093CE00089580910D0144
:1003600090910E01019690930E0180930D010E94D1
:1003700011010E948B0108951F920F920FB60F92E8
:1003800011242F933F934F935F936F937F938F939A
:100390009F93AF93BF93EF93FF938EB10E94AE01F3
:1003A000FF91EF91BF91AF919F918F917F916F914D
:1003B0005F914F913F912F910F900FBE0F901F9023
:1003C00018959F92AF92BF92CF92DF92EF92FF92D9
:1003D0000F931F93CF93DF9387E690E09093CD0028
:1003E0008093CC0088E18093C90086E08093CA00A6
:1003F0000E9486000E94C2000E949E001092080186
:10040000789444EF942E33E0A32E21EDB22E809108
:10041000C80087FFFCCF8091CE00843609F1853675
:1004200028F4803201F18136A1F505C0833771F0DF
:10043000873779F503C0DD24DA942CC08091080158
:10044000843014F084E009C08F5F07C080910801F8
:100450008D3F14F48CEF01C081508093080119C0C6
:10046000DD24D39417C084E091E00E947500809150
:10047000090190910A010E94690184E091E00E94C3
:10048000750080910B0190910C010E9469011092FE
:100490000801DD24C0900801CC2041F12C2D332728
:1004A00027FD309537FF03C0309521953F4FB901A7
:1004B000882777FD8095982F2FEF3FE340E050E0AD
:1004C0000E94BF027B018C01EB01A092BF00B092A1
:1004D000CF00CC1CCC24CC1CDD2099F181E0D816B7
:1004E00099F18FEFD81609F092CF37C0DD2041F097
:1004F00081E0D81661F08FEFD81609F088CF14C0CC
:100500001092BF009092CF000E94060180CFA0926F
:10051000BF00B092CF0080E060E070E80E94EE0083
:1005200081E060E070E821C0A092BF00B092CF00EF
:1005300081E060E871E40E94EE0080E060E871E430
:1005400014C08C2DB7010DC08C2DB7010E94EE0098
:10055000D695C7958C2DBE0108C0D695C7958C2D14
:10056000BE010E94EE008C2DB7010E94D6004FCF35
:100570003F9A0895479A0895479808950895629F6D
:10058000D001739FF001829FE00DF11D649FE00D8B
:10059000F11D929FF00D839FF00D749FF00D659FEC
:1005A000F00D9927729FB00DE11DF91F639FB00DEB
:1005B000E11DF91FBD01CF0111240895AA1BBB1B2A
:1005C00051E107C0AA1FBB1FA617B70710F0A61B53
:1005D000B70B881F991F5A95A9F780959095BC0174
:1005E000CD010895FB019F01E8944230C4F04532EB
:1005F000B4F44A3029F497FB1EF4909581959F4FEF
:10060000642F77270E94DE02805D8A330CF0895DBB
:100610008193CB010097A1F716F45DE2519310820C
:10062000C9010C941303DC01FC01672F719177233E
:10063000E1F7329704C07C916D9370836291AE179D
:0A064000BF07C8F30895F894FFCF38
:08064A0020436D000A0D0000C1
:00000001FF
