:100000000C9456000C9460000C9460000C946000FA
:100010000C9460000C9460000C9460000C946000E0
:100020000C9460000C9460000C9460000C946000D0
:100030000C9460000C9460000C9460000C946000C0
:100040000C9460000C9460000C9460000C946000B0
:100050000C9460000C9460000C9460000C946000A0
:100060000C9460000C9460000C9460000C94600090
:100070000C9460000C9460000C9460000C94600080
:100080000C9460000C9460000C9460000C94600070
:100090000C9460000C9460000C9460000C94600060
:1000A0000C9460000C9460000C94600011241FBE3E
:1000B000CFEFDAE0DEBFCDBF0E9496000C94DA00ED
:1000C0000C94000087E690E09093CD008093CC00E4
:1000D00088E18093C90086E08093CA000895982F34
:1000E0008091C80085FFFCCF9093CE000895809149
:1000F000C80087FFFCCF8091CE0008953F9A2FEB78
:1001000030E083E0F9018083AFECB0E094EF9C93A2
:10011000E0ECF0E0808182688083E1ECF0E08081B7
:100120008F608083F90110829C93089587E690E0A8
:100130009093CD008093CC0088E18093C90086E045
:100140008093CA000E947E0080E395E720E931E0B9
:10015000F9013197F1F70197D9F783E08093BF0058
:1001600081ED8093CF008091C80087FFFCCF9091F4
:10017000CE008091C80085FFFCCF9093CE00809187
:10018000C80085FFFCCF9093CE00EDCF83E0809335
:10019000BF0081ED8093CF0008951092BF0084EFDF
:1001A0008093CF0008953F9A0895479A08954798FD
:0801B00008950895F894FFCFB3
:00000001FF
