:100000000C9456000C9468000C9468000C946800E2
:100010000C9468000C9468000C9468000C946800C0
:100020000C9468000C9468000C9468000C946800B0
:100030000C9468000C9468000C9468000C946800A0
:100040000C9468000C9468000C9468000C94680090
:100050000C9468000C9468000C9468000C94680080
:100060000C9468000C940C020C9468000C946800CA
:100070000C9468000C9468000C9468000C94680060
:100080000C9468000C9468000C9468000C94680050
:100090000C9468000C9468000C9468000C94680040
:1000A0000C9468000C9468000C94680011241FBE26
:1000B000CFEFDAE0DEBFCDBF11E0A0E0B1E001C0DC
:1000C0001D92A630B107E1F70E941F010C942B028C
:1000D0000C94000081E08093680080936B008BBBE0
:1000E00013B8089587E690E09093CD008093CC00FC
:1000F00088E18093C90086E08093CA000895982F14
:100100008091C80085FFFCCF9093CE000895809128
:10011000C80087FFFCCF8091CE0008953F9A2FEB57
:1001200030E083E0F9018083AFECB0E094EF9C9382
:10013000E0ECF0E0808182688083E1ECF0E0808197
:100140008F608083F90110829C93089583E08093EF
:10015000BF0081ED8093CF0008951092BF0084EF1F
:100160008093CF0008958FEF9FEF90938700809347
:100170008600E0E8F0E0808182608083E1E8F0E0E2
:1001800080818961808384B1866684B908958823DB
:1001900011F0299A01C029986115710551F08091DB
:1001A000800080688093800070938900609388004D
:1001B0000895809180008F77809380000895882330
:1001C00011F02A9A01C02A986115710551F08091A9
:1001D000800080628093800070938B0060938A001F
:1001E0000895809180008F7D80938000089580E045
:1001F00060E070E00E94C70080E060E070E00E9474
:10020000DF0008958130910549F08130910598F023
:100210008230910531F0039751F406C02FEF3FE390
:100220000CC02FEF3FE709C02DEF3FEB06C0109247
:1002300005011092040120E030E0C9010895EF9219
:10024000FF920F931F93CF93DF9387E690E09093F5
:10025000CD008093CC0088E18093C90086E0809334
:10026000CA000E948E0080E395E720E931E0F901A1
:100270003197F1F70197D9F783E08093BF0081EDC3
:100280008093CF000E94B30081E080936800809348
:100290006B008BBB13B8789443E0E42E31EDF32E62
:1002A00001E010E0CFEFDFE7E092BF00F092CF0077
:1002B0008091C80087FFFCCF8091CE00843609F47E
:1002C00094C0853628F48032F9F0813669F776C01B
:1002D000833759F1873741F78091040190910501E7
:1002E00001969093050180930401109201011092F0
:1002F00000010E940201682F809302019093030184
:1003000080910001792F53C01092030110920201D5
:10031000109205011092040180E060E070E00E94FC
:10032000C70080E060E070E05DC0809100019091C6
:100330000101892BB9F41092010110920001809102
:100340000201909103019695879590930301809304
:10035000020180910401909105010197909305019C
:100360008093040180910201909103018150904299
:1003700050F40E94F70010920301109202011092B3
:100380000501109204018091020190910301892BD3
:1003900041F41093010100930001D0930301C09335
:1003A00002016091020170910301809100010E949D
:1003B000DF00609102017091030129C06091020188
:1003C00070910301809100010E94C70060910201B9
:1003D0007091030176956795709303016093020114
:1003E000809100010E94DF005FCF60910201709157
:1003F0000301809100010E94DF0060910201709171
:1004000003017695679570930301609302018091D3
:1004100000010E94C70048CF1F920F920FB60F92A3
:1004200011248F939F938091CE00813331F48FEF0D
:100430009FEF90930301809302019F918F910F9002
:100440000FBE0F901F9018953F9A0895479A0895F0
:0A045000479808950895F894FFCF2F
:00000001FF
