:100000000C9456000C946B000C946B000C946B00D9
:100010000C946B000C946B000C946B000C946B00B4
:100020000C946B000C9451010C946B000C946B00BD
:100030000C946B000C946B000C946B000C946B0094
:100040000C946B000C946B000C946B000C946B0084
:100050000C946B000C946B000C946B000C946B0074
:100060000C946B000C946B000C946B000C946B0064
:100070000C946B000C946B000C946B000C946B0054
:100080000C946B000C946B000C946B000C946B0044
:100090000C946B000C946B000C946B000C946B0034
:1000A0000C946B000C946B000C946B0011241FBE1D
:1000B000CFEFDAE0DEBFCDBF11E0A0E0B1E0EEEFC0
:1000C000F2E002C005900D92A230B107D9F70E946C
:1000D000DE000C947D010C94000081E080936800A8
:1000E00080936B008BBB13B808953F9A2FEB30E0E1
:1000F00083E0F9018083AFECB0E094EF9C93E0ECF7
:10010000F0E0808182688083E1ECF0E080818F60A4
:100110008083F90110829C93089583E08093BF004F
:1001200081ED8093CF0008951092BF0084EF8093FB
:10013000CF0008958FEF9FEF909387008093860004
:10014000E0E8F0E0808182608083E1E8F0E0808197
:100150008961808384B1866684B90895882311F00B
:10016000299A01C029986115710551F0809180008C
:100170008068809380007093890060938800089560
:10018000809180008F77809380000895882311F0FC
:100190002A9A01C02A986115710551F0809180005A
:1001A00080628093800070938B0060938A00089532
:1001B000809180008F7D809380000895CF93DF939E
:1001C0000E9475000E949A0081E0809368008093ED
:1001D0006B008BBB13B880E395E720E931E0F901B0
:1001E0003197F1F70197D9F783E08093BF0081ED54
:1001F0008093CF007894C0E9D1E022C080E06FEF17
:100200007FE70E94AE0080E06FEF7FE70E94C600AC
:1002100080E197E2FE013197F1F70197D9F781E08C
:100220006FE57DEE0E94AE0081E06FE57DEE0E94FD
:10023000C60080E197E2FE013197F1F70197D9F707
:10024000809100018823D1F6FFCF80E060E070E06C
:100250000E94AE0080E060E070E00E94C600089559
:1002600080910001813099F40E9425011092BF0015
:1002700084EF8093CF001092000184EC99E020E994
:1002800031E0F9013197F1F70197D9F7089581E04D
:100290008093000183E08093BF0081ED8093CF00C5
:1002A00008951F920F920FB60F9211242F933F9330
:1002B0004F935F936F937F938F939F93AF93BF936E
:1002C000EF93FF9383B10E943001FF91EF91BF91B3
:1002D000AF919F918F917F916F915F914F913F91DE
:1002E0002F910F900FBE0F901F9018953F9A089571
:0E02F000479A0895479808950895F894FFCF0F
:0202FE000100FD
:00000001FF
