:100000000C9456000C9468000C9468000C946800E2
:100010000C9468000C9468000C9468000C946800C0
:100020000C9468000C9448010C9468000C946800CF
:100030000C9468000C9468000C9468000C946800A0
:100040000C9468000C9468000C9468000C94680090
:100050000C9468000C9468000C9468000C94680080
:100060000C9468000C9468000C9468000C94680070
:100070000C9468000C9468000C9468000C94680060
:100080000C9468000C9468000C9468000C94680050
:100090000C9468000C9468000C9468000C94680040
:1000A0000C9468000C9468000C94680011241FBE26
:1000B000CFEFDAE0DEBFCDBF11E0A0E0B1E001C0DC
:1000C0001D92A130B107E1F70E94DB000C9474018E
:1000D0000C94000081E08093680080936B008BBBE0
:1000E00083B908953F9A2FEB30E083E0F9018083D4
:1000F000AFECB0E094EF9C93E0ECF0E0808182689C
:100100008083E1ECF0E080818F608083F9011082D0
:100110009C93089583E08093BF0081ED8093CF008E
:1001200008951092BF0084EF8093CF0008958FEF61
:100130009FEF9093870080938600E0E8F0E0808155
:1001400082608083E1E8F0E080818961808384B10E
:10015000866684B90895882311F0299A01C02998E8
:100160006115710551F08091800080688093800056
:1001700070938900609388000895809180008F7744
:10018000809380000895882311F02A9A01C02A984C
:100190006115710551F0809180008062809380002C
:1001A00070938B0060938A000895809180008F7D0A
:1001B000809380000895CF93DF930E9472000E9485
:1001C000970081E08093680080936B008BBB83B9BC
:1001D00080E395E720E931E0F9013197F1F70197E4
:1001E000D9F783E08093BF0081ED8093CF0081E059
:1001F000809300017894C0E9D1E022C080E06FEFE5
:100200007FEF0E94AB0080E06FEF7FE70E94C300AA
:1002100080E197E2FE013197F1F70197D9F781E08C
:100220006FEF7FE70E94AB0081E06FEF7FEF0E94EE
:10023000C30080E29EE4FE013197F1F70197D9F700
:10024000809100018823D1F6FFCF80E060E070E06C
:100250000E94AB0080E060E070E00E94C30008955F
:1002600080910001813051F40E9425011092BF005D
:1002700084EF8093CF0010920001089581E0809375
:10028000000183E08093BF0081ED8093CF0008954B
:100290001F920F920FB60F9211242F933F934F93FB
:1002A0005F936F937F938F939F93AF93BF93EF93DE
:1002B000FF9383B10E943001FF91EF91BF91AF9105
:1002C0009F918F917F916F915F914F913F912F916E
:1002D0000F900FBE0F901F9018953F9A0895479A60
:0C02E0000895479808950895F894FFCF02
:00000001FF
